:020000040800F2
:10000000600400204501000861040008F7030008AF
:100010005D04000853020008E10D00080000000024
:100020000000000000000000000000006D0A000851
:10003000570200080000000063040008E90B0008F4
:100040005F0100085F0100085F0100085F01000810
:100050005F0100085F010008590200085F01000805
:100060005F0100085F0100085F0100085F010008F0
:100070005F0100085F0100085F0100085F010008E0
:100080005F0100085F0100085F0100085F010008D0
:100090005F0100085F0100085F0100085F010008C0
:1000A0005F0100085F0100085F0100085F010008B0
:1000B0005F0100085F0100085F0100085F010008A0
:1000C0005F0100085F0100085F0100085F01000890
:1000D0005F0100085F0100085F0100085F01000880
:1000E0007D0200085F0100085F0100085F01000851
:1000F0005F0100085F0100085F0100085F01000860
:100100005F0100085F0100085F0100085F0100084F
:100110005F0100085F0100085F0100085F0100083F
:100120005F0100085F0100085F0100085F0100082F
:10013000DFF80CD000F04AF800480047AD12000884
:10014000600400200648804706480047FEE7FEE7B7
:10015000FEE7FEE7FEE7FEE7FEE7FEE7FEE7FEE777
:10016000ED0B0008310100082DE9F05F0546002085
:1001700092469B4688460646814640241BE0284618
:1001800041464746224600F042F853465A46C01AB6
:10019000914110D311461846224600F029F82D1A35
:1001A00067EB01084F4622460120002100F020F8AD
:1001B00017EB00094E41201EA4F10104DFDC484684
:1001C00031462A464346BDE8F09F0000064C074DE5
:1001D00006E0E06840F0010394E807009847103417
:1001E000AC42F6D3FFF7A8FFCC140008EC140008CB
:1001F000202A04DB203A00FA02F1002070479140E7
:10020000C2F1200320FA03F3194390407047202ADB
:1002100004DB203A21FA02F00021704721FA02F3B0
:10022000D040C2F12002914008431946704710B5F2
:10023000034607E018780C78A04201D0002010BDDA
:100240005B1C491C1000A2F10104A2B2F2D10120F2
:10025000F5E700BFFEE7704710B5012000F028F871
:1002600028B10548006880F00100034908600120BA
:1002700000F018F810BD00000C0C014010B54FF450
:10028000005000F015F828B10548006880F0200003
:10029000034908604FF4005000F004F810BD00005E
:1002A0000C0C014001490860704700001404014033
:1002B000014600200022074B1B6803EA0102054BA0
:1002C00014331B680B4013B10AB1012000E0002079
:1002D00070470000000401402DE9F041024600256E
:1002E0000026002000230024002791F803C00CF012
:1002F0000F0591F803C00CF0100CBCF1000F03D0F7
:1003000091F802C04CEA050591F800C0BCF1000F5D
:1003100031D0146800202BE04FF0010C0CFA00F3F0
:10032000B1F800C00CEA03069E4220D183004FF0D2
:100330000F0C0CFA03F7BC4305FA03FC4CEA040467
:1003400091F803C0BCF1280F06D14FF0010C0CFA54
:1003500000FCC2F814C00AE091F803C0BCF1480FD9
:1003600005D14FF0010C0CFA00FCC2F810C0401C83
:100370000828D1D31460B1F800C0BCF1FF0F34DD00
:10038000546800202EE000F1080C4FF0010808FA34
:100390000CF3B1F800C00CEA03069E4221D18300A1
:1003A0004FF00F0C0CFA03F7BC4305FA03FC4CEAC0
:1003B000040491F803C0BCF1280F05D100F1080C2A
:1003C00008FA0CF8C2F8148091F803C0BCF1480F89
:1003D00007D100F1080C4FF0010808FA0CF8C2F838
:1003E0001080401C0828CED35460BDE8F0814161E4
:1003F00070470161704700BFFEE7000008B50121AA
:10040000082000F02FF80120ADF8000010208DF832
:10041000030003208DF8020069460F48FFF75CFFD8
:100420002020ADF8000069460B48FFF755FF022079
:10043000ADF8000069460848FFF74EFF0121064865
:10044000FFF7D7FF20210448FFF7D3FF022102481E
:10045000FFF7CFFF08BD0000000C014000BFFEE722
:100460007047704729B1064A92690243044B9A616A
:1004700004E0034A92698243014B9A61704700008D
:100480000010024030B500210022002400232D4D31
:100490006D6805F00C0121B1042905D0082923D18C
:1004A00005E0294D056022E0274D05601FE0254D40
:1004B0006D6805F47012234D6D6805F480340225D3
:1004C00005EB92421CB9214D554305600BE01D4DD3
:1004D0006D6805F400351DB11C4D5543056002E003
:1004E000194D5543056002E0174D056000BF00BF80
:1004F000144D6D6805F0F0010909154D6B5C056838
:10050000DD4045600F4D6D6805F4E061090A104D4E
:100510006B5C4568DD4085600A4D6D6805F460518F
:10052000C90A0B4D6B5C4568DD40C560054D6D68C3
:1005300005F44041890B074D6B5CC568B5FBF3F5CD
:10054000056130BD0010024000127A0000093D0034
:10055000000000201000002021B1028842F040027B
:10056000028004E002884FF6BF731A400280704791
:1005700070B505460C46164610211048FFF737FFA8
:10058000032000F0C1F9C4F3074000F0BDF9C4F343
:10059000072000F0B9F9E0B200F0B6F904E0FF205E
:1005A00000F0B2F928706D1C3000A6F101018EB286
:1005B000F5D110210148FFF71CFF70BD0008014074
:1005C0002DE9F05F07460E4614464FF00008C1467D
:1005D000C2460025AB4606F0FF0ACAF10000C5B2CC
:1005E0002046E11704EB1161C1F30728E11704EB82
:1005F00011610912A4EB012101F0FF09BAF1000F0A
:1006000020D1B8F1000F05D122463146384600F01E
:10061000C5F864E009E04FF480723146384600F0D6
:10062000BDF806F5807607F580775FEA0800A8F147
:10063000010101F0FF08EED14A463146384600F08C
:10064000ADF84CE0B8F1000F18D1A94510DDA9EBC9
:10065000050000F0FF0B2A463146384600F09EF8B0
:100660002E442F445A463146384600F097F836E07B
:1006700022463146384600F091F830E0601B84B2E3
:100680002046E11704EB1161C1F30728E11704EBE1
:1006900011610912A4EB012101F0FF092A4631463C
:1006A000384600F07BF82E442F4409E04FF4807266
:1006B0003146384600F072F806F5807607F5807707
:1006C0005FEA0800A8F1010101F0FF08EED1B9F1DD
:1006D000000F04D04A463146384600F05FF8BDE8C6
:1006E000F09F000000B587B001210803FFF7BAFEB4
:1006F00001210420FFF7B6FE1020ADF804008DF8AC
:10070000070003208DF8060001A92248FFF7E4FD49
:100710002020ADF8040018208DF8070001A91D481D
:10072000FFF7DAFD4020ADF8040001A91948FFF7F2
:10073000D3FD8020ADF8040001A91648FFF7CCFDD9
:1007400010211448FFF755FE0020ADF808004FF4C3
:100750008270ADF80A000020ADF80C000220ADF860
:100760000E000120ADF810004002ADF81200082084
:10077000ADF814000020ADF816000720ADF8180001
:1007800002A9054800F034F901210348FFF7E4FE0F
:1007900007B000BD000801400030014070B50546BB
:1007A0000C46164600F006F910211548FFF71FFE0B
:1007B000022000F0A9F8C4F3074000F0A5F8C4F344
:1007C000072000F0A1F8E0B200F09EF8B6F5807FB7
:1007D00004DD4FF480760BA000F004FB03E02878E2
:1007E00000F092F86D1C3000A6F101018EB2F6D136
:1007F00010210348FFF7FDFD00F0C2F870BD0000B6
:10080000000801403C3C2D464C4153482D45525276
:100810004F522D3E3E205350495F464C4153485F56
:1008200050616765577269746520746F6F206C61E1
:10083000726765210A00000010B5002410210C48E1
:10084000FFF7D5FDAB2000F05FF8FF2000F05CF86B
:10085000FF2000F059F8FF2000F056F8FF2000F0CC
:1008600053F8044610210248FFF7C3FD204610BD8F
:10087000000801402DE9F041002400250026002752
:1008800010210F48FFF7B3FD9F2000F03DF8FF2037
:1008900000F03AF80546FF2000F036F80646FF2043
:1008A00000F032F8074610210548FFF7A2FD2804A2
:1008B00040EA062040EA07042046BDE8F081000037
:1008C0000008014010B5044600F074F800F058F834
:1008D00010210C48FFF78BFD202000F015F8C4F321
:1008E000074000F011F8C4F3072000F00DF8E0B263
:1008F00000F00AF810210348FFF77BFD00F040F8F4
:1009000010BD00000008014010B504464FF48050AF
:10091000194908600AE018490868411E164A116022
:1009200020B9002000F082F8C0B210BD02211348A7
:1009300000F050F80028EED02146104800F056F89C
:100940004FF480500C4908600AE00B490868411ECA
:10095000094A116020B9012000F068F8C0B2E4E74C
:100960000121064800F036F80028EED0034800F0D8
:100970003AF8C0B2D9E700003C0000200030014046
:1009800010B5002410210A48FFF731FD0520FFF7BC
:10099000BBFF00BFFF20FFF7B7FF044604F00100D4
:1009A0000028F7D110210248FFF723FD10BD0000F9
:1009B0000008014010B510210548FFF718FD06207A
:1009C000FFF7A2FF10210248FFF713FD10BD000042
:1009D000000801400246002013890B400BB10120A2
:1009E00000E0002070470146888970478181704788
:1009F00010B50022028802F441520B884C88234330
:100A00008C882343CC8823430C8923434C8923437C
:100A10008C892343CC8923431A430280838B4FF272
:100A2000FF74234083830B8A038210BD10B50446F4
:100A3000214602A000F0D6F9002010BD3C3C2D4616
:100A40004C4153482D4552524F522D3E3E2053505B
:100A50004920B5C8B4FDB3ACCAB1216572726F72DA
:100A6000436F6465203D2025640A0000704710B57F
:100A700000F002F810BD00000CB5002001900090BD
:100A80003348006840F480303149086000BF304886
:100A9000006800F4003000900198401C019000981C
:100AA00018B90198B0F5A06FF1D12948006800F499
:100AB000003010B10120009001E00020009000986B
:100AC000012843D12348006840F010002149086004
:100AD0000846006820F0030008600846006840F0FF
:100AE000020008601A484068194948600846406892
:100AF00048600846406840F48060486008464068A6
:100B000020F47C1048600846406840F4E8104860D3
:100B10000846006840F08070086000BF0C4800681C
:100B200000F000700028F9D00948406820F0030068
:100B3000074948600846406840F00200486000BF2E
:100B40000348406800F00C000828F9D10CBD0000F3
:100B5000001002400020024030B50146B1F1807F14
:100B600001D3012030BD21F07F40401E4FF0E02234
:100B7000506150170F22002807DA13071D0E094B8A
:100B800000F00F04241F1D5503E013071C0E064B35
:100B90001C5400BF00204FF0E0229061072010613C
:100BA0000020DFE718ED00E000E400E070B5044647
:100BB0000C48FFF7D1FF002508E000BF4FF0E02010
:100BC000006900F480300028F8D06D1CA542F4D3F1
:100BD0004FF0E020006920F001004FF0E0210861B3
:100BE00070BD0000401901007047000010B51348A7
:100BF000006840F00100114908600846406810494B
:100C000008400E494860084600680E4908400B49F4
:100C100008600846006820F48020086008464068A4
:100C200020F4FE0048604FF41F008860FFF71FFFAC
:100C30004FF000600449086010BD00000010024041
:100C40000000FFF8FFFFF6FE08ED00E021B1828909
:100C500042F40052828104E082894DF6FF731A400B
:100C60008281704700B585B001210420FFF7FAFBAF
:100C700001218803FFF7F6FB4FF40070ADF8100078
:100C800018208DF8130003208DF8120004A91348D2
:100C9000FFF722FB4FF48060ADF8100004208DF8C0
:100CA000130004A90D48FFF717FB4FF4E130009043
:100CB0000020ADF80400ADF80600ADF80800ADF86E
:100CC0000C000C20ADF80A006946054800F018F841
:100CD00001210348FFF7BAFF05B000BD000801403D
:100CE0000038014002460020B1F5007F00D100BF6E
:100CF00013880B400BB1012000E00020704700007A
:100D00002DE9F04786B005460E460024A24600BFF6
:100D1000A1460027B08900B100BF2F462C8A4CF6AF
:100D2000FF700440F08804432C82AC894EF6F31027
:100D30000440B08831890843718908430443AC8179
:100D4000AC8A4FF6FF400440B0890443AC8201A84E
:100D5000FFF798FB1F48874202D1DDF810A001E0A1
:100D6000DDF80CA0A88900F4004040B10AEBCA00ED
:100D700000EB0A1031684900B0FBF1F807E00AEB1C
:100D8000CA0000EB0A1031688900B0FBF1F864205A
:100D9000B8FBF0F004012009642101FB1089A88947
:100DA00000F4004040B1322000EBC900B0FBF1F08C
:100DB00000F00700044308E0322000EB0910642132
:100DC000B0FBF1F000F00F0004432C8106B0BDE849
:100DD000F087000000380140C1F3080282807047AC
:100DE00000BFFEE70FB4054B10B503A9044A0298F3
:100DF00000F018F810BC5DF814FB00008912000820
:100E00004000002002E008C8121F08C1002AFAD1E1
:100E100070477047002001E001C1121F002AFBD17A
:100E2000704700002DE9FF4F8DB00F4605460026A4
:100E300006E025280BD0DDE90F1290476D1C761CCB
:100E400028780028F5D111B03046BDE8F08F002495
:100E5000A246A1460122EC4900E0044315F8013FF7
:100E6000203B02FA03F00842F7D128782A2810D054
:100E70006FF02F022878A0F13001092914D80AEB6D
:100E80008A0102EB410144F0020400EB010A6D1CEF
:100E9000F0E701CF5FEA000A03D544F40054CAF139
:100EA000000A44F002046D1C28782E2817D115F88A
:100EB000010F44F004042A280ED06FF02F02287886
:100EC000A0F1300109290AD809EB890102EB41019F
:100ED00000EB01096D1CF2E757F8049B6D1C2878A4
:100EE0006C280FD006DC4C2817D068280DD06A2853
:100EF00014D104E0742810D07A280FD10DE044F406
:100F000000140AE044F4801401E044F440146978C9
:100F1000814202D104F580146D1C6D1C2A786E2A62
:100F20001FD00CDC632A31D004DC002A8BD0582A75
:100F300011D1A3E0642A68D0692A0CD165E0732A34
:100F40002ED004DC6F2A73D0702A04D19BE0752A5E
:100F50006FD0782A6ED01046DDE90F129047761CCC
:100F600050E1C4F30250022806D0032809D0042817
:100F700001CF09D0066045E101CFF117C0E900615A
:100F800040E101CF06803DE106703BE117F8040B1C
:100F90008DF8000000208DF80100EB46012003E0F1
:100FA00057F804BB4FF0FF3061074FF0000102D447
:100FB0000DE008F10101884649450FDA8045F8DB6C
:100FC0001BF808100029F4D108E008F10101884657
:100FD0008142FADB1BF808100029F6D1DDE90F2366
:100FE000AAEB08008146214600F036F9304400EBB8
:100FF000080604E0DDE90F121BF8010B9047B8F179
:101000000108F7D221464846F7E00A21C4F302530B
:101010004FF0000B0891022B04D001CFC117032B16
:1010200009D00AE0FF1D27F00707F7E8020108E0F2
:1010300032E01FE020E000B2C117042B01D140B222
:10104000C117031E71F1000307DA4FF0000CD0EB5B
:101050000C006CEB01012D2302E0230504D52B23AA
:101060008DF82430012303E0E30701D02023F7E7C4
:10107000984658E00A2110E010210EE010204FF0B1
:10108000000B08900CE010214FF0000B44F004041A
:101090004FF00809089103E008214FF0000B089178
:1010A000C4F30253022B04D001CF0021032B06D03E
:1010B00006E0FF1D27F00707F7E8020103E080B212
:1010C000042B00D1C0B24FF0000823072BD5702AA3
:1010D00007D0DDF820C08CF0100C5CEA0B0C05D0BA
:1010E0000EE040238DF82430012308E050EA01038C
:1010F00006D030238DF824308DF825200223984621
:10110000DDF820C08CF0080C5CEA0B0C0BD150EA27
:10111000010301D1630706D530238DF824304FF049
:101120000108A9F10109582A04D038A20B9208AA93
:101130000A920BE03AA2F9E75B46089AFFF714F827
:101140000B9B9B5C0A9A521E0A92137050EA010292
:10115000F2D10A98ADEB000000F1200B600702D538
:1011600024F4803401E04FF00109D94502DDA9EBF8
:101170000B0000E0002000EB0B0141440890AAEBBB
:10118000010AE00306D4DDE90F232146504600F0B2
:1011900063F806444FF0000908E009A911F80900B6
:1011A000DDE90F12904709F10109761CC145F4DB16
:1011B000E0030CD5DDE90F232146504600F04CF842
:1011C000064404E0DDE90F1230209047761C0899B0
:1011D000481E08900029F5DC08E00A980A99007872
:1011E000491C0A91DDE90F129047761CBBF1000102
:1011F000ABF1010BF1DC21465046DDE90F2300F095
:1012000019F806446D1C1BE6092801003031323301
:101210003435363738396162636465660000000032
:10122000303132333435363738394142434445461C
:10123000000000002DE9F041044600251E46174637
:10124000880404D405E039462020B0476D1C641E94
:10125000F9D52846BDE8F0812DE9F0410446002586
:101260001E469046C80301D5302700E02027880499
:1012700004D505E041463846B0476D1C641EF9D5DB
:101280002846BDE8F081000070B504460D46E1B285
:101290000548FFF7A1FD00BF80210348FFF722FDAD
:1012A0000028F9D0204670BD00380140FFF7A6F8AD
:1012B000202038490860012008600220091D0860CC
:1012C000FFF7D0FC34A0FFF78DFDFFF70BFAFFF717
:1012D000B3FA3D490860C820FFF768FCFFF7CAFA77
:1012E0003A490860384802680846016838A0FFF7A4
:1012F00079FD36480068444988423CD143A0FFF755
:1013000071FD0020FFF7DEFA1B2200214748FFF79E
:1013100057F9464946A0FFF765FD1B2200214A48C0
:10132000FFF726F9484949A0FFF75CFD1B22464913
:101330003E48FEF77CFF4B490870084600780128BC
:101340000CD12020134908600120091D08600220EB
:10135000091F086044A0FFF745FD18E020200D4953
:10136000091D08600120091F08600220086047A0CD
:10137000FFF738FD0BE020200649091D0860012019
:10138000091F08600220086049A0FFF72BFD00BF7D
:10139000FEE70000100C01400D0A20D5E2CAC7D2BA
:1013A000BBB8F620384D6279746520B4AED0D02039
:1013B000666C6173682857323551363429CAB5D105
:1013C000E9200D0A00000000300000203400002059
:1013D0000D0A20466C617368494420697320307897
:1013E00025582C094D616E7566616374757265725E
:1013F000204465766963652049442069732030780C
:1014000025580D0A000000001740EF000D0A20BC0F
:10141000ECB2E2B5BDB4AED0D0666C617368205753
:10142000323551363420210D0A000000140000200E
:101430000D0A20D0B4C8EBB5C4CAFDBEDDCEAAA348
:10144000BA2573200D090000440000200D0A20B6C3
:10145000C1B3F6B5C4CAFDBEDDCEAAA3BA257320BA
:101460000D0A0000380000200D0A20384DB4AED01F
:10147000D0666C6173682857323551363429B2E230
:10148000CAD4B3C9B9A6210A0D0000000D0A20383C
:101490004DB4AED0D0666C61736828573235513682
:1014A0003429B2E2CAD4CAA7B0DC210A0D00000078
:1014B0000D0A20BBF1C8A1B2BBB5BD2057323551D2
:1014C0003634204944210A0D00000000EC140008C5
:1014D0000000002044000000040E00083015000841
:1014E000440000201C040000140E0008000000004E
:1014F00001020304010203040607080902040608A6
:10150000B8D0D0BBC4FAD1A1D3C3D2B0BBF07374EE
:101510006D3332BFAAB7A2B0E50D0A00000000008B
:10152000000000000000000000A00000000000001B
:0400000508000131BD
:00000001FF
